{
  "_format": "hh-sol-artifact-1",
  "contractName": "A",
  "sourceName": "contracts/A.sol",
  "abi": [
    {
      "inputs": [
        {
          "internalType": "uint256",
          "name": "a1",
          "type": "uint256"
        },
        {
          "internalType": "uint256",
          "name": "b1",
          "type": "uint256"
        }
      ],
      "name": "add",
      "outputs": [
        {
          "internalType": "uint256",
          "name": "",
          "type": "uint256"
        }
      ],
      "stateMutability": "view",
      "type": "function"
    },
    {
      "inputs": [],
      "name": "getA",
      "outputs": [
        {
          "internalType": "uint256",
          "name": "",
          "type": "uint256"
        }
      ],
      "stateMutability": "view",
      "type": "function"
    },
    {
      "inputs": [
        {
          "internalType": "uint256",
          "name": "_a",
          "type": "uint256"
        }
      ],
      "name": "setA",
      "outputs": [],
      "stateMutability": "nonpayable",
      "type": "function"
    }
  ],
  "bytecode": "0x608060405234801561001057600080fd5b50610244806100206000396000f3fe608060405234801561001057600080fd5b50600436106100415760003560e01c8063771602f714610046578063d46300fd14610076578063ee919d5014610094575b600080fd5b610060600480360381019061005b9190610114565b6100b0565b60405161006d9190610163565b60405180910390f35b61007e6100c6565b60405161008b9190610163565b60405180910390f35b6100ae60048036038101906100a9919061017e565b6100cf565b005b600081836100be91906101da565b905092915050565b60008054905090565b8060008190555050565b600080fd5b6000819050919050565b6100f1816100de565b81146100fc57600080fd5b50565b60008135905061010e816100e8565b92915050565b6000806040838503121561012b5761012a6100d9565b5b6000610139858286016100ff565b925050602061014a858286016100ff565b9150509250929050565b61015d816100de565b82525050565b60006020820190506101786000830184610154565b92915050565b600060208284031215610194576101936100d9565b5b60006101a2848285016100ff565b91505092915050565b7f4e487b7100000000000000000000000000000000000000000000000000000000600052601160045260246000fd5b60006101e5826100de565b91506101f0836100de565b9250828201905080821115610208576102076101ab565b5b9291505056fea264697066735822122057bfc78ffd091669148c7180cdbb468c45fb39478407c5dc46f8fb34c39cab8264736f6c63430008110033",
  "linkReferences": {},
  "deployedLinkReferences": {}
}