{"contracts/A.sol":{"A":{"abi":[{"inputs":[{"internalType":"uint256","name":"n1","type":"uint256"},{"internalType":"uint256","name":"n2","type":"uint256"}],"name":"compare","outputs":[{"internalType":"uint256","name":"","type":"uint256"}],"stateMutability":"pure","type":"function"},{"inputs":[],"name":"getLen","outputs":[{"internalType":"uint256","name":"","type":"uint256"}],"stateMutability":"view","type":"function"},{"inputs":[{"internalType":"uint256[]","name":"narr","type":"uint256[]"}],"name":"setA","outputs":[],"stateMutability":"nonpayable","type":"function"}],"evm":{"bytecode":{"linkReferences":{},"object":"608060405234801561001057600080fd5b50610481806100206000396000f3fe608060405234801561001057600080fd5b50600436106100415760003560e01c80634a90be57146100465780635186878914610064578063f360234c14610080575b600080fd5b61004e6100b0565b60405161005b9190610168565b60405180910390f35b61007e6004803603810190610079919061031c565b6100bc565b005b61009a60048036038101906100959190610365565b610122565b6040516100a79190610168565b60405180910390f35b60008080549050905090565b60005b815181101561011e5760008282815181106100dd576100dc6103a5565b5b60200260200101519080600181540180825580915050600190039060005260206000200160009091909190915055808061011690610403565b9150506100bf565b5050565b60008183111561013457829050610149565b8183101561014457819050610149565b600090505b92915050565b6000819050919050565b6101628161014f565b82525050565b600060208201905061017d6000830184610159565b92915050565b6000604051905090565b600080fd5b600080fd5b600080fd5b6000601f19601f8301169050919050565b7f4e487b7100000000000000000000000000000000000000000000000000000000600052604160045260246000fd5b6101e58261019c565b810181811067ffffffffffffffff82111715610204576102036101ad565b5b80604052505050565b6000610217610183565b905061022382826101dc565b919050565b600067ffffffffffffffff821115610243576102426101ad565b5b602082029050602081019050919050565b600080fd5b6102628161014f565b811461026d57600080fd5b50565b60008135905061027f81610259565b92915050565b600061029861029384610228565b61020d565b905080838252602082019050602084028301858111156102bb576102ba610254565b5b835b818110156102e457806102d08882610270565b8452602084019350506020810190506102bd565b5050509392505050565b600082601f83011261030357610302610197565b5b8135610313848260208601610285565b91505092915050565b6000602082840312156103325761033161018d565b5b600082013567ffffffffffffffff8111156103505761034f610192565b5b61035c848285016102ee565b91505092915050565b6000806040838503121561037c5761037b61018d565b5b600061038a85828601610270565b925050602061039b85828601610270565b9150509250929050565b7f4e487b7100000000000000000000000000000000000000000000000000000000600052603260045260246000fd5b7f4e487b7100000000000000000000000000000000000000000000000000000000600052601160045260246000fd5b600061040e8261014f565b91507fffffffffffffffffffffffffffffffffffffffffffffffffffffffffffffffff82036104405761043f6103d4565b5b60018201905091905056fea26469706673582212205bccf31880fe96bda34f3a544e91fda1c676a158cc4e7accb9d0973730a7003464736f6c63430008110033","opcodes":"PUSH1 0x80 PUSH1 0x40 MSTORE CALLVALUE DUP1 ISZERO PUSH2 0x10 JUMPI PUSH1 0x0 DUP1 REVERT JUMPDEST POP PUSH2 0x481 DUP1 PUSH2 0x20 PUSH1 0x0 CODECOPY PUSH1 0x0 RETURN INVALID PUSH1 0x80 PUSH1 0x40 MSTORE CALLVALUE DUP1 ISZERO PUSH2 0x10 JUMPI PUSH1 0x0 DUP1 REVERT JUMPDEST POP PUSH1 0x4 CALLDATASIZE LT PUSH2 0x41 JUMPI PUSH1 0x0 CALLDATALOAD PUSH1 0xE0 SHR DUP1 PUSH4 0x4A90BE57 EQ PUSH2 0x46 JUMPI DUP1 PUSH4 0x51868789 EQ PUSH2 0x64 JUMPI DUP1 PUSH4 0xF360234C EQ PUSH2 0x80 JUMPI JUMPDEST PUSH1 0x0 DUP1 REVERT JUMPDEST PUSH2 0x4E PUSH2 0xB0 JUMP JUMPDEST PUSH1 0x40 MLOAD PUSH2 0x5B SWAP2 SWAP1 PUSH2 0x168 JUMP JUMPDEST PUSH1 0x40 MLOAD DUP1 SWAP2 SUB SWAP1 RETURN JUMPDEST PUSH2 0x7E PUSH1 0x4 DUP1 CALLDATASIZE SUB DUP2 ADD SWAP1 PUSH2 0x79 SWAP2 SWAP1 PUSH2 0x31C JUMP JUMPDEST PUSH2 0xBC JUMP JUMPDEST STOP JUMPDEST PUSH2 0x9A PUSH1 0x4 DUP1 CALLDATASIZE SUB DUP2 ADD SWAP1 PUSH2 0x95 SWAP2 SWAP1 PUSH2 0x365 JUMP JUMPDEST PUSH2 0x122 JUMP JUMPDEST PUSH1 0x40 MLOAD PUSH2 0xA7 SWAP2 SWAP1 PUSH2 0x168 JUMP JUMPDEST PUSH1 0x40 MLOAD DUP1 SWAP2 SUB SWAP1 RETURN JUMPDEST PUSH1 0x0 DUP1 DUP1 SLOAD SWAP1 POP SWAP1 POP SWAP1 JUMP JUMPDEST PUSH1 0x0 JUMPDEST DUP2 MLOAD DUP2 LT ISZERO PUSH2 0x11E JUMPI PUSH1 0x0 DUP3 DUP3 DUP2 MLOAD DUP2 LT PUSH2 0xDD JUMPI PUSH2 0xDC PUSH2 0x3A5 JUMP JUMPDEST JUMPDEST PUSH1 0x20 MUL PUSH1 0x20 ADD ADD MLOAD SWAP1 DUP1 PUSH1 0x1 DUP2 SLOAD ADD DUP1 DUP3 SSTORE DUP1 SWAP2 POP POP PUSH1 0x1 SWAP1 SUB SWAP1 PUSH1 0x0 MSTORE PUSH1 0x20 PUSH1 0x0 KECCAK256 ADD PUSH1 0x0 SWAP1 SWAP2 SWAP1 SWAP2 SWAP1 SWAP2 POP SSTORE DUP1 DUP1 PUSH2 0x116 SWAP1 PUSH2 0x403 JUMP JUMPDEST SWAP2 POP POP PUSH2 0xBF JUMP JUMPDEST POP POP JUMP JUMPDEST PUSH1 0x0 DUP2 DUP4 GT ISZERO PUSH2 0x134 JUMPI DUP3 SWAP1 POP PUSH2 0x149 JUMP JUMPDEST DUP2 DUP4 LT ISZERO PUSH2 0x144 JUMPI DUP2 SWAP1 POP PUSH2 0x149 JUMP JUMPDEST PUSH1 0x0 SWAP1 POP JUMPDEST SWAP3 SWAP2 POP POP JUMP JUMPDEST PUSH1 0x0 DUP2 SWAP1 POP SWAP2 SWAP1 POP JUMP JUMPDEST PUSH2 0x162 DUP2 PUSH2 0x14F JUMP JUMPDEST DUP3 MSTORE POP POP JUMP JUMPDEST PUSH1 0x0 PUSH1 0x20 DUP3 ADD SWAP1 POP PUSH2 0x17D PUSH1 0x0 DUP4 ADD DUP5 PUSH2 0x159 JUMP JUMPDEST SWAP3 SWAP2 POP POP JUMP JUMPDEST PUSH1 0x0 PUSH1 0x40 MLOAD SWAP1 POP SWAP1 JUMP JUMPDEST PUSH1 0x0 DUP1 REVERT JUMPDEST PUSH1 0x0 DUP1 REVERT JUMPDEST PUSH1 0x0 DUP1 REVERT JUMPDEST PUSH1 0x0 PUSH1 0x1F NOT PUSH1 0x1F DUP4 ADD AND SWAP1 POP SWAP2 SWAP1 POP JUMP JUMPDEST PUSH32 0x4E487B7100000000000000000000000000000000000000000000000000000000 PUSH1 0x0 MSTORE PUSH1 0x41 PUSH1 0x4 MSTORE PUSH1 0x24 PUSH1 0x0 REVERT JUMPDEST PUSH2 0x1E5 DUP3 PUSH2 0x19C JUMP JUMPDEST DUP2 ADD DUP2 DUP2 LT PUSH8 0xFFFFFFFFFFFFFFFF DUP3 GT OR ISZERO PUSH2 0x204 JUMPI PUSH2 0x203 PUSH2 0x1AD JUMP JUMPDEST JUMPDEST DUP1 PUSH1 0x40 MSTORE POP POP POP JUMP JUMPDEST PUSH1 0x0 PUSH2 0x217 PUSH2 0x183 JUMP JUMPDEST SWAP1 POP PUSH2 0x223 DUP3 DUP3 PUSH2 0x1DC JUMP JUMPDEST SWAP2 SWAP1 POP JUMP JUMPDEST PUSH1 0x0 PUSH8 0xFFFFFFFFFFFFFFFF DUP3 GT ISZERO PUSH2 0x243 JUMPI PUSH2 0x242 PUSH2 0x1AD JUMP JUMPDEST JUMPDEST PUSH1 0x20 DUP3 MUL SWAP1 POP PUSH1 0x20 DUP2 ADD SWAP1 POP SWAP2 SWAP1 POP JUMP JUMPDEST PUSH1 0x0 DUP1 REVERT JUMPDEST PUSH2 0x262 DUP2 PUSH2 0x14F JUMP JUMPDEST DUP2 EQ PUSH2 0x26D JUMPI PUSH1 0x0 DUP1 REVERT JUMPDEST POP JUMP JUMPDEST PUSH1 0x0 DUP2 CALLDATALOAD SWAP1 POP PUSH2 0x27F DUP2 PUSH2 0x259 JUMP JUMPDEST SWAP3 SWAP2 POP POP JUMP JUMPDEST PUSH1 0x0 PUSH2 0x298 PUSH2 0x293 DUP5 PUSH2 0x228 JUMP JUMPDEST PUSH2 0x20D JUMP JUMPDEST SWAP1 POP DUP1 DUP4 DUP3 MSTORE PUSH1 0x20 DUP3 ADD SWAP1 POP PUSH1 0x20 DUP5 MUL DUP4 ADD DUP6 DUP2 GT ISZERO PUSH2 0x2BB JUMPI PUSH2 0x2BA PUSH2 0x254 JUMP JUMPDEST JUMPDEST DUP4 JUMPDEST DUP2 DUP2 LT ISZERO PUSH2 0x2E4 JUMPI DUP1 PUSH2 0x2D0 DUP9 DUP3 PUSH2 0x270 JUMP JUMPDEST DUP5 MSTORE PUSH1 0x20 DUP5 ADD SWAP4 POP POP PUSH1 0x20 DUP2 ADD SWAP1 POP PUSH2 0x2BD JUMP JUMPDEST POP POP POP SWAP4 SWAP3 POP POP POP JUMP JUMPDEST PUSH1 0x0 DUP3 PUSH1 0x1F DUP4 ADD SLT PUSH2 0x303 JUMPI PUSH2 0x302 PUSH2 0x197 JUMP JUMPDEST JUMPDEST DUP2 CALLDATALOAD PUSH2 0x313 DUP5 DUP3 PUSH1 0x20 DUP7 ADD PUSH2 0x285 JUMP JUMPDEST SWAP2 POP POP SWAP3 SWAP2 POP POP JUMP JUMPDEST PUSH1 0x0 PUSH1 0x20 DUP3 DUP5 SUB SLT ISZERO PUSH2 0x332 JUMPI PUSH2 0x331 PUSH2 0x18D JUMP JUMPDEST JUMPDEST PUSH1 0x0 DUP3 ADD CALLDATALOAD PUSH8 0xFFFFFFFFFFFFFFFF DUP2 GT ISZERO PUSH2 0x350 JUMPI PUSH2 0x34F PUSH2 0x192 JUMP JUMPDEST JUMPDEST PUSH2 0x35C DUP5 DUP3 DUP6 ADD PUSH2 0x2EE JUMP JUMPDEST SWAP2 POP POP SWAP3 SWAP2 POP POP JUMP JUMPDEST PUSH1 0x0 DUP1 PUSH1 0x40 DUP4 DUP6 SUB SLT ISZERO PUSH2 0x37C JUMPI PUSH2 0x37B PUSH2 0x18D JUMP JUMPDEST JUMPDEST PUSH1 0x0 PUSH2 0x38A DUP6 DUP3 DUP7 ADD PUSH2 0x270 JUMP JUMPDEST SWAP3 POP POP PUSH1 0x20 PUSH2 0x39B DUP6 DUP3 DUP7 ADD PUSH2 0x270 JUMP JUMPDEST SWAP2 POP POP SWAP3 POP SWAP3 SWAP1 POP JUMP JUMPDEST PUSH32 0x4E487B7100000000000000000000000000000000000000000000000000000000 PUSH1 0x0 MSTORE PUSH1 0x32 PUSH1 0x4 MSTORE PUSH1 0x24 PUSH1 0x0 REVERT JUMPDEST PUSH32 0x4E487B7100000000000000000000000000000000000000000000000000000000 PUSH1 0x0 MSTORE PUSH1 0x11 PUSH1 0x4 MSTORE PUSH1 0x24 PUSH1 0x0 REVERT JUMPDEST PUSH1 0x0 PUSH2 0x40E DUP3 PUSH2 0x14F JUMP JUMPDEST SWAP2 POP PUSH32 0xFFFFFFFFFFFFFFFFFFFFFFFFFFFFFFFFFFFFFFFFFFFFFFFFFFFFFFFFFFFFFFFF DUP3 SUB PUSH2 0x440 JUMPI PUSH2 0x43F PUSH2 0x3D4 JUMP JUMPDEST JUMPDEST PUSH1 0x1 DUP3 ADD SWAP1 POP SWAP2 SWAP1 POP JUMP INVALID LOG2 PUSH5 0x6970667358 0x22 SLT KECCAK256 JUMPDEST 0xCC RETURN XOR DUP1 INVALID SWAP7 0xBD LOG3 0x4F GASPRICE SLOAD 0x4E SWAP2 REVERT LOG1 0xC6 PUSH23 0xA158CC4E7ACCB9D0973730A7003464736F6C6343000811 STOP CALLER "},"methodIdentifiers":{"compare(uint256,uint256)":"f360234c","getLen()":"4a90be57","setA(uint256[])":"51868789"}}}}}