{
  "_format": "hh-sol-artifact-1",
  "contractName": "A",
  "sourceName": "contracts/A.sol",
  "abi": [
    {
      "inputs": [
        {
          "internalType": "uint256",
          "name": "n1",
          "type": "uint256"
        },
        {
          "internalType": "uint256",
          "name": "n2",
          "type": "uint256"
        }
      ],
      "name": "compare",
      "outputs": [
        {
          "internalType": "uint256",
          "name": "",
          "type": "uint256"
        }
      ],
      "stateMutability": "pure",
      "type": "function"
    },
    {
      "inputs": [],
      "name": "getLen",
      "outputs": [
        {
          "internalType": "uint256",
          "name": "",
          "type": "uint256"
        }
      ],
      "stateMutability": "view",
      "type": "function"
    },
    {
      "inputs": [
        {
          "internalType": "uint256[]",
          "name": "narr",
          "type": "uint256[]"
        }
      ],
      "name": "setA",
      "outputs": [],
      "stateMutability": "nonpayable",
      "type": "function"
    }
  ],
  "bytecode": "0x608060405234801561001057600080fd5b50610481806100206000396000f3fe608060405234801561001057600080fd5b50600436106100415760003560e01c80634a90be57146100465780635186878914610064578063f360234c14610080575b600080fd5b61004e6100b0565b60405161005b9190610168565b60405180910390f35b61007e6004803603810190610079919061031c565b6100bc565b005b61009a60048036038101906100959190610365565b610122565b6040516100a79190610168565b60405180910390f35b60008080549050905090565b60005b815181101561011e5760008282815181106100dd576100dc6103a5565b5b60200260200101519080600181540180825580915050600190039060005260206000200160009091909190915055808061011690610403565b9150506100bf565b5050565b60008183111561013457829050610149565b8183101561014457819050610149565b600090505b92915050565b6000819050919050565b6101628161014f565b82525050565b600060208201905061017d6000830184610159565b92915050565b6000604051905090565b600080fd5b600080fd5b600080fd5b6000601f19601f8301169050919050565b7f4e487b7100000000000000000000000000000000000000000000000000000000600052604160045260246000fd5b6101e58261019c565b810181811067ffffffffffffffff82111715610204576102036101ad565b5b80604052505050565b6000610217610183565b905061022382826101dc565b919050565b600067ffffffffffffffff821115610243576102426101ad565b5b602082029050602081019050919050565b600080fd5b6102628161014f565b811461026d57600080fd5b50565b60008135905061027f81610259565b92915050565b600061029861029384610228565b61020d565b905080838252602082019050602084028301858111156102bb576102ba610254565b5b835b818110156102e457806102d08882610270565b8452602084019350506020810190506102bd565b5050509392505050565b600082601f83011261030357610302610197565b5b8135610313848260208601610285565b91505092915050565b6000602082840312156103325761033161018d565b5b600082013567ffffffffffffffff8111156103505761034f610192565b5b61035c848285016102ee565b91505092915050565b6000806040838503121561037c5761037b61018d565b5b600061038a85828601610270565b925050602061039b85828601610270565b9150509250929050565b7f4e487b7100000000000000000000000000000000000000000000000000000000600052603260045260246000fd5b7f4e487b7100000000000000000000000000000000000000000000000000000000600052601160045260246000fd5b600061040e8261014f565b91507fffffffffffffffffffffffffffffffffffffffffffffffffffffffffffffffff82036104405761043f6103d4565b5b60018201905091905056fea26469706673582212205bccf31880fe96bda34f3a544e91fda1c676a158cc4e7accb9d0973730a7003464736f6c63430008110033",
  "linkReferences": {},
  "deployedLinkReferences": {}
}