{
  "_format": "hh-sol-artifact-1",
  "contractName": "AToken",
  "sourceName": "contracts/ERC720.sol",
  "abi": [
    {
      "inputs": [],
      "stateMutability": "nonpayable",
      "type": "constructor"
    },
    {
      "anonymous": false,
      "inputs": [
        {
          "indexed": true,
          "internalType": "address",
          "name": "owner",
          "type": "address"
        },
        {
          "indexed": true,
          "internalType": "address",
          "name": "approved",
          "type": "address"
        },
        {
          "indexed": true,
          "internalType": "uint256",
          "name": "tokenId",
          "type": "uint256"
        }
      ],
      "name": "Approval",
      "type": "event"
    },
    {
      "anonymous": false,
      "inputs": [
        {
          "indexed": true,
          "internalType": "address",
          "name": "owner",
          "type": "address"
        },
        {
          "indexed": true,
          "internalType": "address",
          "name": "operator",
          "type": "address"
        },
        {
          "indexed": false,
          "internalType": "bool",
          "name": "approved",
          "type": "bool"
        }
      ],
      "name": "ApprovalForAll",
      "type": "event"
    },
    {
      "anonymous": false,
      "inputs": [
        {
          "indexed": true,
          "internalType": "address",
          "name": "from",
          "type": "address"
        },
        {
          "indexed": true,
          "internalType": "address",
          "name": "to",
          "type": "address"
        },
        {
          "indexed": true,
          "internalType": "uint256",
          "name": "tokenId",
          "type": "uint256"
        }
      ],
      "name": "Transfer",
      "type": "event"
    },
    {
      "inputs": [],
      "name": "_id",
      "outputs": [
        {
          "internalType": "uint256",
          "name": "",
          "type": "uint256"
        }
      ],
      "stateMutability": "view",
      "type": "function"
    },
    {
      "inputs": [
        {
          "internalType": "address",
          "name": "to",
          "type": "address"
        },
        {
          "internalType": "uint256",
          "name": "tokenId",
          "type": "uint256"
        }
      ],
      "name": "approve",
      "outputs": [],
      "stateMutability": "nonpayable",
      "type": "function"
    },
    {
      "inputs": [
        {
          "internalType": "address",
          "name": "owner",
          "type": "address"
        }
      ],
      "name": "balanceOf",
      "outputs": [
        {
          "internalType": "uint256",
          "name": "",
          "type": "uint256"
        }
      ],
      "stateMutability": "view",
      "type": "function"
    },
    {
      "inputs": [
        {
          "internalType": "uint256",
          "name": "tokenId",
          "type": "uint256"
        }
      ],
      "name": "getApproved",
      "outputs": [
        {
          "internalType": "address",
          "name": "",
          "type": "address"
        }
      ],
      "stateMutability": "view",
      "type": "function"
    },
    {
      "inputs": [
        {
          "internalType": "address",
          "name": "owner",
          "type": "address"
        },
        {
          "internalType": "address",
          "name": "operator",
          "type": "address"
        }
      ],
      "name": "isApprovedForAll",
      "outputs": [
        {
          "internalType": "bool",
          "name": "",
          "type": "bool"
        }
      ],
      "stateMutability": "view",
      "type": "function"
    },
    {
      "inputs": [],
      "name": "name",
      "outputs": [
        {
          "internalType": "string",
          "name": "",
          "type": "string"
        }
      ],
      "stateMutability": "view",
      "type": "function"
    },
    {
      "inputs": [
        {
          "internalType": "address",
          "name": "receiver",
          "type": "address"
        },
        {
          "internalType": "string",
          "name": "tokenURI",
          "type": "string"
        }
      ],
      "name": "nftMINT",
      "outputs": [],
      "stateMutability": "nonpayable",
      "type": "function"
    },
    {
      "inputs": [
        {
          "internalType": "uint256",
          "name": "tokenId",
          "type": "uint256"
        }
      ],
      "name": "ownerOf",
      "outputs": [
        {
          "internalType": "address",
          "name": "",
          "type": "address"
        }
      ],
      "stateMutability": "view",
      "type": "function"
    },
    {
      "inputs": [
        {
          "internalType": "address",
          "name": "from",
          "type": "address"
        },
        {
          "internalType": "address",
          "name": "to",
          "type": "address"
        },
        {
          "internalType": "uint256",
          "name": "tokenId",
          "type": "uint256"
        }
      ],
      "name": "safeTransferFrom",
      "outputs": [],
      "stateMutability": "nonpayable",
      "type": "function"
    },
    {
      "inputs": [
        {
          "internalType": "address",
          "name": "from",
          "type": "address"
        },
        {
          "internalType": "address",
          "name": "to",
          "type": "address"
        },
        {
          "internalType": "uint256",
          "name": "tokenId",
          "type": "uint256"
        },
        {
          "internalType": "bytes",
          "name": "data",
          "type": "bytes"
        }
      ],
      "name": "safeTransferFrom",
      "outputs": [],
      "stateMutability": "nonpayable",
      "type": "function"
    },
    {
      "inputs": [
        {
          "internalType": "address",
          "name": "operator",
          "type": "address"
        },
        {
          "internalType": "bool",
          "name": "approved",
          "type": "bool"
        }
      ],
      "name": "setApprovalForAll",
      "outputs": [],
      "stateMutability": "nonpayable",
      "type": "function"
    },
    {
      "inputs": [
        {
          "internalType": "bytes4",
          "name": "interfaceId",
          "type": "bytes4"
        }
      ],
      "name": "supportsInterface",
      "outputs": [
        {
          "internalType": "bool",
          "name": "",
          "type": "bool"
        }
      ],
      "stateMutability": "view",
      "type": "function"
    },
    {
      "inputs": [],
      "name": "symbol",
      "outputs": [
        {
          "internalType": "string",
          "name": "",
          "type": "string"
        }
      ],
      "stateMutability": "view",
      "type": "function"
    },
    {
      "inputs": [
        {
          "internalType": "uint256",
          "name": "tokenId",
          "type": "uint256"
        }
      ],
      "name": "tokenURI",
      "outputs": [
        {
          "internalType": "string",
          "name": "",
          "type": "string"
        }
      ],
      "stateMutability": "view",
      "type": "function"
    },
    {
      "inputs": [
        {
          "internalType": "address",
          "name": "from",
          "type": "address"
        },
        {
          "internalType": "address",
          "name": "to",
          "type": "address"
        },
        {
          "internalType": "uint256",
          "name": "tokenId",
          "type": "uint256"
        }
      ],
      "name": "transferFrom",
      "outputs": [],
      "stateMutability": "nonpayable",
      "type": "function"
    },
    {
      "stateMutability": "payable",
      "type": "receive"
    }
  ],
  "bytecode": "0x60806040523480156200001157600080fd5b506040518060400160405280600881526020017f415f73696d706c650000000000000000000000000000000000000000000000008152506040518060400160405280600281526020017f415300000000000000000000000000000000000000000000000000000000000081525081600090816200008f919062000324565b508060019081620000a1919062000324565b5050506200040b565b600081519050919050565b7f4e487b7100000000000000000000000000000000000000000000000000000000600052604160045260246000fd5b7f4e487b7100000000000000000000000000000000000000000000000000000000600052602260045260246000fd5b600060028204905060018216806200012c57607f821691505b602082108103620001425762000141620000e4565b5b50919050565b60008190508160005260206000209050919050565b60006020601f8301049050919050565b600082821b905092915050565b600060088302620001ac7fffffffffffffffffffffffffffffffffffffffffffffffffffffffffffffffff826200016d565b620001b886836200016d565b95508019841693508086168417925050509392505050565b6000819050919050565b6000819050919050565b600062000205620001ff620001f984620001d0565b620001da565b620001d0565b9050919050565b6000819050919050565b6200022183620001e4565b6200023962000230826200020c565b8484546200017a565b825550505050565b600090565b6200025062000241565b6200025d81848462000216565b505050565b5b8181101562000285576200027960008262000246565b60018101905062000263565b5050565b601f821115620002d4576200029e8162000148565b620002a9846200015d565b81016020851015620002b9578190505b620002d1620002c8856200015d565b83018262000262565b50505b505050565b600082821c905092915050565b6000620002f960001984600802620002d9565b1980831691505092915050565b6000620003148383620002e6565b9150826002028217905092915050565b6200032f82620000aa565b67ffffffffffffffff8111156200034b576200034a620000b5565b5b62000357825462000113565b6200036482828562000289565b600060209050601f8311600181146200039c576000841562000387578287015190505b62000393858262000306565b86555062000403565b601f198416620003ac8662000148565b60005b82811015620003d657848901518255600182019150602085019450602081019050620003af565b86831015620003f65784890151620003f2601f891682620002e6565b8355505b6001600288020188555050505b505050505050565b612cfb806200041b6000396000f3fe6080604052600436106100ec5760003560e01c80634671977b1161008a578063a22cb46511610059578063a22cb46514610311578063b88d4fde1461033a578063c87b56dd14610363578063e985e9c5146103a0576100f3565b80634671977b146102435780636352211e1461026c57806370a08231146102a957806395d89b41146102e6576100f3565b8063081812fc116100c6578063081812fc1461018b578063095ea7b3146101c857806323b872dd146101f157806342842e0e1461021a576100f3565b806301ffc9a7146100f8578063051802371461013557806306fdde0314610160576100f3565b366100f357005b600080fd5b34801561010457600080fd5b5061011f600480360381019061011a9190611b0b565b6103dd565b60405161012c9190611b53565b60405180910390f35b34801561014157600080fd5b5061014a6104bf565b6040516101579190611b87565b60405180910390f35b34801561016c57600080fd5b506101756104c5565b6040516101829190611c32565b60405180910390f35b34801561019757600080fd5b506101b260048036038101906101ad9190611c80565b610557565b6040516101bf9190611cee565b60405180910390f35b3480156101d457600080fd5b506101ef60048036038101906101ea9190611d35565b61059d565b005b3480156101fd57600080fd5b5061021860048036038101906102139190611d75565b6106b4565b005b34801561022657600080fd5b50610241600480360381019061023c9190611d75565b610714565b005b34801561024f57600080fd5b5061026a60048036038101906102659190611efd565b610734565b005b34801561027857600080fd5b50610293600480360381019061028e9190611c80565b610768565b6040516102a09190611cee565b60405180910390f35b3480156102b557600080fd5b506102d060048036038101906102cb9190611f59565b6107ee565b6040516102dd9190611b87565b60405180910390f35b3480156102f257600080fd5b506102fb6108a5565b6040516103089190611c32565b60405180910390f35b34801561031d57600080fd5b5061033860048036038101906103339190611fb2565b610937565b005b34801561034657600080fd5b50610361600480360381019061035c9190612093565b61094d565b005b34801561036f57600080fd5b5061038a60048036038101906103859190611c80565b6109af565b6040516103979190611c32565b60405180910390f35b3480156103ac57600080fd5b506103c760048036038101906103c29190612116565b610ac1565b6040516103d49190611b53565b60405180910390f35b60007f80ac58cd000000000000000000000000000000000000000000000000000000007bffffffffffffffffffffffffffffffffffffffffffffffffffffffff1916827bffffffffffffffffffffffffffffffffffffffffffffffffffffffff191614806104a857507f5b5e139f000000000000000000000000000000000000000000000000000000007bffffffffffffffffffffffffffffffffffffffffffffffffffffffff1916827bffffffffffffffffffffffffffffffffffffffffffffffffffffffff1916145b806104b857506104b782610b55565b5b9050919050565b60075481565b6060600080546104d490612185565b80601f016020809104026020016040519081016040528092919081815260200182805461050090612185565b801561054d5780601f106105225761010080835404028352916020019161054d565b820191906000526020600020905b81548152906001019060200180831161053057829003601f168201915b5050505050905090565b600061056282610bbf565b6004600083815260200190815260200160002060009054906101000a900473ffffffffffffffffffffffffffffffffffffffff169050919050565b60006105a882610768565b90508073ffffffffffffffffffffffffffffffffffffffff168373ffffffffffffffffffffffffffffffffffffffff1603610618576040517f08c379a000000000000000000000000000000000000000000000000000000000815260040161060f90612228565b60405180910390fd5b8073ffffffffffffffffffffffffffffffffffffffff16610637610c0a565b73ffffffffffffffffffffffffffffffffffffffff161480610666575061066581610660610c0a565b610ac1565b5b6106a5576040517f08c379a000000000000000000000000000000000000000000000000000000000815260040161069c906122ba565b60405180910390fd5b6106af8383610c12565b505050565b6106c56106bf610c0a565b82610ccb565b610704576040517f08c379a00000000000000000000000000000000000000000000000000000000081526004016106fb9061234c565b60405180910390fd5b61070f838383610d60565b505050565b61072f8383836040518060200160405280600081525061094d565b505050565b61074082600754611059565b61074c60075482611276565b6007600081548092919061075f9061239b565b91905055505050565b600080610774836112e3565b9050600073ffffffffffffffffffffffffffffffffffffffff168173ffffffffffffffffffffffffffffffffffffffff16036107e5576040517f08c379a00000000000000000000000000000000000000000000000000000000081526004016107dc9061242f565b60405180910390fd5b80915050919050565b60008073ffffffffffffffffffffffffffffffffffffffff168273ffffffffffffffffffffffffffffffffffffffff160361085e576040517f08c379a0000000000000000000000000000000000000000000000000000000008152600401610855906124c1565b60405180910390fd5b600360008373ffffffffffffffffffffffffffffffffffffffff1673ffffffffffffffffffffffffffffffffffffffff168152602001908152602001600020549050919050565b6060600180546108b490612185565b80601f01602080910402602001604051908101604052809291908181526020018280546108e090612185565b801561092d5780601f106109025761010080835404028352916020019161092d565b820191906000526020600020905b81548152906001019060200180831161091057829003601f168201915b5050505050905090565b610949610942610c0a565b8383611320565b5050565b61095e610958610c0a565b83610ccb565b61099d576040517f08c379a00000000000000000000000000000000000000000000000000000000081526004016109949061234c565b60405180910390fd5b6109a98484848461148c565b50505050565b60606109ba82610bbf565b60006006600084815260200190815260200160002080546109da90612185565b80601f0160208091040260200160405190810160405280929190818152602001828054610a0690612185565b8015610a535780601f10610a2857610100808354040283529160200191610a53565b820191906000526020600020905b815481529060010190602001808311610a3657829003601f168201915b505050505090506000610a646114e8565b90506000815103610a79578192505050610abc565b600082511115610aae578082604051602001610a9692919061251d565b60405160208183030381529060405292505050610abc565b610ab7846114ff565b925050505b919050565b6000600560008473ffffffffffffffffffffffffffffffffffffffff1673ffffffffffffffffffffffffffffffffffffffff16815260200190815260200160002060008373ffffffffffffffffffffffffffffffffffffffff1673ffffffffffffffffffffffffffffffffffffffff16815260200190815260200160002060009054906101000a900460ff16905092915050565b60007f01ffc9a7000000000000000000000000000000000000000000000000000000007bffffffffffffffffffffffffffffffffffffffffffffffffffffffff1916827bffffffffffffffffffffffffffffffffffffffffffffffffffffffff1916149050919050565b610bc881611567565b610c07576040517f08c379a0000000000000000000000000000000000000000000000000000000008152600401610bfe9061242f565b60405180910390fd5b50565b600033905090565b816004600083815260200190815260200160002060006101000a81548173ffffffffffffffffffffffffffffffffffffffff021916908373ffffffffffffffffffffffffffffffffffffffff160217905550808273ffffffffffffffffffffffffffffffffffffffff16610c8583610768565b73ffffffffffffffffffffffffffffffffffffffff167f8c5be1e5ebec7d5bd14f71427d1e84f3dd0314c0f7b2291e5b200ac8c7c3b92560405160405180910390a45050565b600080610cd783610768565b90508073ffffffffffffffffffffffffffffffffffffffff168473ffffffffffffffffffffffffffffffffffffffff161480610d195750610d188185610ac1565b5b80610d5757508373ffffffffffffffffffffffffffffffffffffffff16610d3f84610557565b73ffffffffffffffffffffffffffffffffffffffff16145b91505092915050565b8273ffffffffffffffffffffffffffffffffffffffff16610d8082610768565b73ffffffffffffffffffffffffffffffffffffffff1614610dd6576040517f08c379a0000000000000000000000000000000000000000000000000000000008152600401610dcd906125b3565b60405180910390fd5b600073ffffffffffffffffffffffffffffffffffffffff168273ffffffffffffffffffffffffffffffffffffffff1603610e45576040517f08c379a0000000000000000000000000000000000000000000000000000000008152600401610e3c90612645565b60405180910390fd5b610e5283838360016115a8565b8273ffffffffffffffffffffffffffffffffffffffff16610e7282610768565b73ffffffffffffffffffffffffffffffffffffffff1614610ec8576040517f08c379a0000000000000000000000000000000000000000000000000000000008152600401610ebf906125b3565b60405180910390fd5b6004600082815260200190815260200160002060006101000a81549073ffffffffffffffffffffffffffffffffffffffff02191690556001600360008573ffffffffffffffffffffffffffffffffffffffff1673ffffffffffffffffffffffffffffffffffffffff168152602001908152602001600020600082825403925050819055506001600360008473ffffffffffffffffffffffffffffffffffffffff1673ffffffffffffffffffffffffffffffffffffffff16815260200190815260200160002060008282540192505081905550816002600083815260200190815260200160002060006101000a81548173ffffffffffffffffffffffffffffffffffffffff021916908373ffffffffffffffffffffffffffffffffffffffff160217905550808273ffffffffffffffffffffffffffffffffffffffff168473ffffffffffffffffffffffffffffffffffffffff167fddf252ad1be2c89b69c2b068fc378daa952ba7f163c4a11628f55a4df523b3ef60405160405180910390a461105483838360016116ce565b505050565b600073ffffffffffffffffffffffffffffffffffffffff168273ffffffffffffffffffffffffffffffffffffffff16036110c8576040517f08c379a00000000000000000000000000000000000000000000000000000000081526004016110bf906126b1565b60405180910390fd5b6110d181611567565b15611111576040517f08c379a00000000000000000000000000000000000000000000000000000000081526004016111089061271d565b60405180910390fd5b61111f6000838360016115a8565b61112881611567565b15611168576040517f08c379a000000000000000000000000000000000000000000000000000000000815260040161115f9061271d565b60405180910390fd5b6001600360008473ffffffffffffffffffffffffffffffffffffffff1673ffffffffffffffffffffffffffffffffffffffff16815260200190815260200160002060008282540192505081905550816002600083815260200190815260200160002060006101000a81548173ffffffffffffffffffffffffffffffffffffffff021916908373ffffffffffffffffffffffffffffffffffffffff160217905550808273ffffffffffffffffffffffffffffffffffffffff16600073ffffffffffffffffffffffffffffffffffffffff167fddf252ad1be2c89b69c2b068fc378daa952ba7f163c4a11628f55a4df523b3ef60405160405180910390a46112726000838360016116ce565b5050565b61127f82611567565b6112be576040517f08c379a00000000000000000000000000000000000000000000000000000000081526004016112b5906127af565b60405180910390fd5b806006600084815260200190815260200160002090816112de919061297b565b505050565b60006002600083815260200190815260200160002060009054906101000a900473ffffffffffffffffffffffffffffffffffffffff169050919050565b8173ffffffffffffffffffffffffffffffffffffffff168373ffffffffffffffffffffffffffffffffffffffff160361138e576040517f08c379a000000000000000000000000000000000000000000000000000000000815260040161138590612a99565b60405180910390fd5b80600560008573ffffffffffffffffffffffffffffffffffffffff1673ffffffffffffffffffffffffffffffffffffffff16815260200190815260200160002060008473ffffffffffffffffffffffffffffffffffffffff1673ffffffffffffffffffffffffffffffffffffffff16815260200190815260200160002060006101000a81548160ff0219169083151502179055508173ffffffffffffffffffffffffffffffffffffffff168373ffffffffffffffffffffffffffffffffffffffff167f17307eab39ab6107e8899845ad3d59bd9653f200f220920489ca2b5937696c318360405161147f9190611b53565b60405180910390a3505050565b611497848484610d60565b6114a3848484846116d4565b6114e2576040517f08c379a00000000000000000000000000000000000000000000000000000000081526004016114d990612b2b565b60405180910390fd5b50505050565b606060405180602001604052806000815250905090565b606061150a82610bbf565b60006115146114e8565b90506000815111611534576040518060200160405280600081525061155f565b8061153e8461185b565b60405160200161154f92919061251d565b6040516020818303038152906040525b915050919050565b60008073ffffffffffffffffffffffffffffffffffffffff16611589836112e3565b73ffffffffffffffffffffffffffffffffffffffff1614159050919050565b60018111156116c857600073ffffffffffffffffffffffffffffffffffffffff168473ffffffffffffffffffffffffffffffffffffffff161461163c5780600360008673ffffffffffffffffffffffffffffffffffffffff1673ffffffffffffffffffffffffffffffffffffffff16815260200190815260200160002060008282546116349190612b4b565b925050819055505b600073ffffffffffffffffffffffffffffffffffffffff168373ffffffffffffffffffffffffffffffffffffffff16146116c75780600360008573ffffffffffffffffffffffffffffffffffffffff1673ffffffffffffffffffffffffffffffffffffffff16815260200190815260200160002060008282546116bf9190612b7f565b925050819055505b5b50505050565b50505050565b60006116f58473ffffffffffffffffffffffffffffffffffffffff16611929565b1561184e578373ffffffffffffffffffffffffffffffffffffffff1663150b7a0261171e610c0a565b8786866040518563ffffffff1660e01b81526004016117409493929190612c08565b6020604051808303816000875af192505050801561177c57506040513d601f19601f820116820180604052508101906117799190612c69565b60015b6117fe573d80600081146117ac576040519150601f19603f3d011682016040523d82523d6000602084013e6117b1565b606091505b5060008151036117f6576040517f08c379a00000000000000000000000000000000000000000000000000000000081526004016117ed90612b2b565b60405180910390fd5b805181602001fd5b63150b7a0260e01b7bffffffffffffffffffffffffffffffffffffffffffffffffffffffff1916817bffffffffffffffffffffffffffffffffffffffffffffffffffffffff191614915050611853565b600190505b949350505050565b60606000600161186a8461194c565b01905060008167ffffffffffffffff81111561188957611888611dd2565b5b6040519080825280601f01601f1916602001820160405280156118bb5781602001600182028036833780820191505090505b509050600082602001820190505b60011561191e578080600190039150507f3031323334353637383961626364656600000000000000000000000000000000600a86061a8153600a858161191257611911612c96565b5b049450600085036118c9575b819350505050919050565b6000808273ffffffffffffffffffffffffffffffffffffffff163b119050919050565b600080600090507a184f03e93ff9f4daa797ed6e38ed64bf6a1f01000000000000000083106119aa577a184f03e93ff9f4daa797ed6e38ed64bf6a1f01000000000000000083816119a05761199f612c96565b5b0492506040810190505b6d04ee2d6d415b85acef810000000083106119e7576d04ee2d6d415b85acef810000000083816119dd576119dc612c96565b5b0492506020810190505b662386f26fc100008310611a1657662386f26fc100008381611a0c57611a0b612c96565b5b0492506010810190505b6305f5e1008310611a3f576305f5e1008381611a3557611a34612c96565b5b0492506008810190505b6127108310611a64576127108381611a5a57611a59612c96565b5b0492506004810190505b60648310611a875760648381611a7d57611a7c612c96565b5b0492506002810190505b600a8310611a96576001810190505b80915050919050565b6000604051905090565b600080fd5b600080fd5b60007fffffffff0000000000000000000000000000000000000000000000000000000082169050919050565b611ae881611ab3565b8114611af357600080fd5b50565b600081359050611b0581611adf565b92915050565b600060208284031215611b2157611b20611aa9565b5b6000611b2f84828501611af6565b91505092915050565b60008115159050919050565b611b4d81611b38565b82525050565b6000602082019050611b686000830184611b44565b92915050565b6000819050919050565b611b8181611b6e565b82525050565b6000602082019050611b9c6000830184611b78565b92915050565b600081519050919050565b600082825260208201905092915050565b60005b83811015611bdc578082015181840152602081019050611bc1565b60008484015250505050565b6000601f19601f8301169050919050565b6000611c0482611ba2565b611c0e8185611bad565b9350611c1e818560208601611bbe565b611c2781611be8565b840191505092915050565b60006020820190508181036000830152611c4c8184611bf9565b905092915050565b611c5d81611b6e565b8114611c6857600080fd5b50565b600081359050611c7a81611c54565b92915050565b600060208284031215611c9657611c95611aa9565b5b6000611ca484828501611c6b565b91505092915050565b600073ffffffffffffffffffffffffffffffffffffffff82169050919050565b6000611cd882611cad565b9050919050565b611ce881611ccd565b82525050565b6000602082019050611d036000830184611cdf565b92915050565b611d1281611ccd565b8114611d1d57600080fd5b50565b600081359050611d2f81611d09565b92915050565b60008060408385031215611d4c57611d4b611aa9565b5b6000611d5a85828601611d20565b9250506020611d6b85828601611c6b565b9150509250929050565b600080600060608486031215611d8e57611d8d611aa9565b5b6000611d9c86828701611d20565b9350506020611dad86828701611d20565b9250506040611dbe86828701611c6b565b9150509250925092565b600080fd5b600080fd5b7f4e487b7100000000000000000000000000000000000000000000000000000000600052604160045260246000fd5b611e0a82611be8565b810181811067ffffffffffffffff82111715611e2957611e28611dd2565b5b80604052505050565b6000611e3c611a9f565b9050611e488282611e01565b919050565b600067ffffffffffffffff821115611e6857611e67611dd2565b5b611e7182611be8565b9050602081019050919050565b82818337600083830152505050565b6000611ea0611e9b84611e4d565b611e32565b905082815260208101848484011115611ebc57611ebb611dcd565b5b611ec7848285611e7e565b509392505050565b600082601f830112611ee457611ee3611dc8565b5b8135611ef4848260208601611e8d565b91505092915050565b60008060408385031215611f1457611f13611aa9565b5b6000611f2285828601611d20565b925050602083013567ffffffffffffffff811115611f4357611f42611aae565b5b611f4f85828601611ecf565b9150509250929050565b600060208284031215611f6f57611f6e611aa9565b5b6000611f7d84828501611d20565b91505092915050565b611f8f81611b38565b8114611f9a57600080fd5b50565b600081359050611fac81611f86565b92915050565b60008060408385031215611fc957611fc8611aa9565b5b6000611fd785828601611d20565b9250506020611fe885828601611f9d565b9150509250929050565b600067ffffffffffffffff82111561200d5761200c611dd2565b5b61201682611be8565b9050602081019050919050565b600061203661203184611ff2565b611e32565b90508281526020810184848401111561205257612051611dcd565b5b61205d848285611e7e565b509392505050565b600082601f83011261207a57612079611dc8565b5b813561208a848260208601612023565b91505092915050565b600080600080608085870312156120ad576120ac611aa9565b5b60006120bb87828801611d20565b94505060206120cc87828801611d20565b93505060406120dd87828801611c6b565b925050606085013567ffffffffffffffff8111156120fe576120fd611aae565b5b61210a87828801612065565b91505092959194509250565b6000806040838503121561212d5761212c611aa9565b5b600061213b85828601611d20565b925050602061214c85828601611d20565b9150509250929050565b7f4e487b7100000000000000000000000000000000000000000000000000000000600052602260045260246000fd5b6000600282049050600182168061219d57607f821691505b6020821081036121b0576121af612156565b5b50919050565b7f4552433732313a20617070726f76616c20746f2063757272656e74206f776e6560008201527f7200000000000000000000000000000000000000000000000000000000000000602082015250565b6000612212602183611bad565b915061221d826121b6565b604082019050919050565b6000602082019050818103600083015261224181612205565b9050919050565b7f4552433732313a20617070726f76652063616c6c6572206973206e6f7420746f60008201527f6b656e206f776e6572206f7220617070726f76656420666f7220616c6c000000602082015250565b60006122a4603d83611bad565b91506122af82612248565b604082019050919050565b600060208201905081810360008301526122d381612297565b9050919050565b7f4552433732313a2063616c6c6572206973206e6f7420746f6b656e206f776e6560008201527f72206f7220617070726f76656400000000000000000000000000000000000000602082015250565b6000612336602d83611bad565b9150612341826122da565b604082019050919050565b6000602082019050818103600083015261236581612329565b9050919050565b7f4e487b7100000000000000000000000000000000000000000000000000000000600052601160045260246000fd5b60006123a682611b6e565b91507fffffffffffffffffffffffffffffffffffffffffffffffffffffffffffffffff82036123d8576123d761236c565b5b600182019050919050565b7f4552433732313a20696e76616c696420746f6b656e2049440000000000000000600082015250565b6000612419601883611bad565b9150612424826123e3565b602082019050919050565b600060208201905081810360008301526124488161240c565b9050919050565b7f4552433732313a2061646472657373207a65726f206973206e6f74206120766160008201527f6c6964206f776e65720000000000000000000000000000000000000000000000602082015250565b60006124ab602983611bad565b91506124b68261244f565b604082019050919050565b600060208201905081810360008301526124da8161249e565b9050919050565b600081905092915050565b60006124f782611ba2565b61250181856124e1565b9350612511818560208601611bbe565b80840191505092915050565b600061252982856124ec565b915061253582846124ec565b91508190509392505050565b7f4552433732313a207472616e736665722066726f6d20696e636f72726563742060008201527f6f776e6572000000000000000000000000000000000000000000000000000000602082015250565b600061259d602583611bad565b91506125a882612541565b604082019050919050565b600060208201905081810360008301526125cc81612590565b9050919050565b7f4552433732313a207472616e7366657220746f20746865207a65726f2061646460008201527f7265737300000000000000000000000000000000000000000000000000000000602082015250565b600061262f602483611bad565b915061263a826125d3565b604082019050919050565b6000602082019050818103600083015261265e81612622565b9050919050565b7f4552433732313a206d696e7420746f20746865207a65726f2061646472657373600082015250565b600061269b602083611bad565b91506126a682612665565b602082019050919050565b600060208201905081810360008301526126ca8161268e565b9050919050565b7f4552433732313a20746f6b656e20616c7265616479206d696e74656400000000600082015250565b6000612707601c83611bad565b9150612712826126d1565b602082019050919050565b60006020820190508181036000830152612736816126fa565b9050919050565b7f45524337323155524953746f726167653a2055524920736574206f66206e6f6e60008201527f6578697374656e7420746f6b656e000000000000000000000000000000000000602082015250565b6000612799602e83611bad565b91506127a48261273d565b604082019050919050565b600060208201905081810360008301526127c88161278c565b9050919050565b60008190508160005260206000209050919050565b60006020601f8301049050919050565b600082821b905092915050565b6000600883026128317fffffffffffffffffffffffffffffffffffffffffffffffffffffffffffffffff826127f4565b61283b86836127f4565b95508019841693508086168417925050509392505050565b6000819050919050565b600061287861287361286e84611b6e565b612853565b611b6e565b9050919050565b6000819050919050565b6128928361285d565b6128a661289e8261287f565b848454612801565b825550505050565b600090565b6128bb6128ae565b6128c6818484612889565b505050565b5b818110156128ea576128df6000826128b3565b6001810190506128cc565b5050565b601f82111561292f57612900816127cf565b612909846127e4565b81016020851015612918578190505b61292c612924856127e4565b8301826128cb565b50505b505050565b600082821c905092915050565b600061295260001984600802612934565b1980831691505092915050565b600061296b8383612941565b9150826002028217905092915050565b61298482611ba2565b67ffffffffffffffff81111561299d5761299c611dd2565b5b6129a78254612185565b6129b28282856128ee565b600060209050601f8311600181146129e557600084156129d3578287015190505b6129dd858261295f565b865550612a45565b601f1984166129f3866127cf565b60005b82811015612a1b578489015182556001820191506020850194506020810190506129f6565b86831015612a385784890151612a34601f891682612941565b8355505b6001600288020188555050505b505050505050565b7f4552433732313a20617070726f766520746f2063616c6c657200000000000000600082015250565b6000612a83601983611bad565b9150612a8e82612a4d565b602082019050919050565b60006020820190508181036000830152612ab281612a76565b9050919050565b7f4552433732313a207472616e7366657220746f206e6f6e20455243373231526560008201527f63656976657220696d706c656d656e7465720000000000000000000000000000602082015250565b6000612b15603283611bad565b9150612b2082612ab9565b604082019050919050565b60006020820190508181036000830152612b4481612b08565b9050919050565b6000612b5682611b6e565b9150612b6183611b6e565b9250828203905081811115612b7957612b7861236c565b5b92915050565b6000612b8a82611b6e565b9150612b9583611b6e565b9250828201905080821115612bad57612bac61236c565b5b92915050565b600081519050919050565b600082825260208201905092915050565b6000612bda82612bb3565b612be48185612bbe565b9350612bf4818560208601611bbe565b612bfd81611be8565b840191505092915050565b6000608082019050612c1d6000830187611cdf565b612c2a6020830186611cdf565b612c376040830185611b78565b8181036060830152612c498184612bcf565b905095945050505050565b600081519050612c6381611adf565b92915050565b600060208284031215612c7f57612c7e611aa9565b5b6000612c8d84828501612c54565b91505092915050565b7f4e487b7100000000000000000000000000000000000000000000000000000000600052601260045260246000fdfea264697066735822122075893987ef294e96d59bfe0dbf588512da47ec93a1522f68093c7cdf99855d9064736f6c63430008110033",
  "linkReferences": {},
  "deployedLinkReferences": {}
}